:100000000A128A11FC2F00308A000408840A820731
:1000100000341F34003411340034113400341134EE
:1000200000341D340034153400341D3400340034E1
:1000300000341D34003405340034053400340534F4
:1000400000340534003405340034073400340034FF
:1000500000340F34003409340034013400340134E6
:10006000003401340034093400340F3400340034D7
:1000700000340934003415340034153400341D3490
:10008000003411340034113400341F34003400348F
:1000900000340034003400340034003400340034C0
:1000A00000340034003400340034003400340034B0
:1000B000003417340034153400341534003415344A
:1000C000003415340034153400341D340034003449
:1000D00000341C3400340434003404340034043458
:1000E00000340E3400340A3400340E34003400344A
:1000F000003417340034153400341534003415340A
:10010000003415340034153400341D340034003408
:10011000003420344D3461346C34613479346134CA
:100120006C3461346D3420346E3461346D34653434
:02013000003499
:100BD80000300A128A11F9250A128A1101300A1204
:100BE8008A11F9250A128A110800F30083120313E7
:100BF800081173080A128A1113260A128A1183121D
:100C0800031388151A30F200F830F100F10B0A2EA0
:100C1800F20B0A2E00008312031388110800F0005B
:100C2800701C172E182E1C2E8312031308161F2E45
:100C3800831203130812F01C222E232E252E881649
:100C4800262E8812701D292E2A2E2C2E08172D2E9E
:100C58000813F01D302E312E332E8817342E8813AA
:100C68000800FB00F901FA014C2E79087B07840083
:100C78000A128A1103200A128A110A128A110127FC
:100C88000A128A110130F9070318FA0A0030FA0724
:100C980079087B0784000A128A1103200A128A1134
:100CA800003A031D582E592E392E0800F7007703F5
:100CB800031D5F2E602E832E74087F3EF500750895
:100CC800FA007A08F50004300310F50CFF3E031D06
:100CD800682E7508F6007608F8007A080F39F500CE
:100CE8007508F90078080A128A11F9250A128A117A
:100CF80079080A128A11F9250A128A11AB2E0230D4
:100D08007706031D882E892EAB2E7408BF3EF5008A
:100D18007508FA007A08F50004300310F50CFF3E58
:100D2800031D912E7508F6007608F8007A080F3929
:100D3800F5007508F90078080A128A11F9250A12CF
:100D48008A1179080A128A11F9250A128A110800EB
:100D580000300A128A1113260A128A1103300A1265
:100D68008A11F9250A128A112130F5007630F4002B
:100D7800F40BBC2EF50BBC2E000003300A128A11AE
:100D8800F9250A128A114830F5006C30F400F40B8A
:100D9800CB2EF50BCB2E000003300A128A11F92551
:100DA8000A128A1102300A128A11F9250A128A11C6
:100DB80002300A128A11F9250A128A1108300A1219
:100DC8008A11F9250A128A1100300A128A11F925A6
:100DD8000A128A110C300A128A11F9250A128A118C
:100DE80000300A128A11F9250A128A1106300A12ED
:100DF8008A11F9250A128A110800F80078080F39B3
:100E0800F1007108F2007808F039F1007108F30078
:100E18008312031308157308F10004300310F10C52
:100E2800FF3E031D122F71080A128A1113260A1297
:100E38008A118312031388153330F4008230F500C9
:100E48000000FF30F4070318F50AFF30F5077508AE
:100E5800803AFF0080307F02031D342F0130740276
:100E6800031C372F382F242F83120313881172087D
:100E78000A128A1113260A128A118312031388157B
:100E88003330F6008230F7000000FF30F607031811
:100E9800F70AFF30F7077708803AFF0080307F02B3
:100EA800031D582F01307602031C5B2F5C2F482F3F
:100EB80083120313881108008316031388010A128A
:100EC8008A11AC260A128A1104300A128A11F925ED
:100ED8000A128A1100300A128A11F9250A128A1197
:100EE800FC017C0883120313A0002007013E840044
:100EF8000A128A1103200A128A110A128A1101277A
:100F08000A128A11013083120313A0002008FC077B
:100F180040307C02031C912F922F752F00300A124B
:100F28008A11F9250A128A1102300A128A11F92542
:100F38000A128A110A128A11EC250A128A11F4017E
:100F4800F40A01300A128A115A260A128A1100304C
:100F58000A128A1101270A128A1101300A128A110B
:100F680001270A128A1102300A128A1101270A126D
:100F78008A1103300A128A1101270A128A110430D1
:100F88000A128A1101270A128A1105300A128A11D7
:100F980001270A128A1106300A128A1101270A1239
:100FA8008A1107300A128A1101270A128A11F401DC
:100FB800F40A02300A128A115A260A128A1181305A
:100FC8000A128A1135260A128A111A30831203135B
:100FD800A2005E30A1006D30A000A00BF12FA10B84
:100FE800F12FA20BF12FF82F9E2F0A128A11002839
:080FF80083010A128A11602F27
:02400E00723FFF
:00000001FF
